S01D000050726F6A656374335F64756D6D795F726F6F6D62612E7372656393
S113000097C00000B6C00000B4C00000B2C0000039
S1130010B0C00000AEC00000ACC00000AAC0000028
S1130020A8C00000A6C00000A4C00000A2C0000038
S1130030A0C000009EC000009CC000009AC0000048
S113004098C0000096C0000094C0000092C0000058
S113005090C000000C944F0A8CC000008AC00000BD
S113006088C0000086C0000084C0000082C0000078
S113007080C000007EC000007CC000007AC0000088
S113008078C0000076C0000074C0000072C0000098
S113009070C000006EC000006CC000006AC00000A8
S11300A068C0000066C0000064C0000062C00000B8
S11300B060C000005EC000005CC000005AC00000C8
S11300C058C0000056C0000054C000000C94E00B5F
S11300D050C000004EC000004CC000004AC00000E8
S11300E048C0000036014B011B011B012F011B01FD
S11300F01B011B011B011B0144011B011B011B01F3
S11301001B011B013D011B011B011B011B015201B2
S11301105901F309940418053D054E05EF0900063D
S11301208A046D050D0822086F08BB08D0084F0922
S113013011241FBECFEFD1E2DEBFCDBF00E00CBF64
S113014012E0A0E0B2E0E8ECF8E100E00BBF02C08E
S113015007900D92A030B107D9F724E1A0E0B2E0F6
S113016001C01D92AD3FB207E1F70E944B0A0C9407
S1130170620C46CFFF920F931F93CF93DF938C01B2
S1130180F62EEA01E881F981D9012D913C91C9014A
S11301900A966BE070E00E94110CE817F90779F0F9
S11301A0E00FF11FF0828881998101966BE070E085
S11301B00E94110C9983888380E090E002C08FEF45
S11301C09FEFDF91CF911F910F91FF90089581E0F0
S11301D00E948B0B8093F814682F80E00E94630BBD
S11301E029EE34E147EE54E16091F8148BEE94E18A
S11301F0C1DF8AE090E00E943C0AE9CFCF93DF930D
S1130200EA0128813981FB0140815181421753075A
S113021071F0FC01E20FF31FE081C90101966BE06C
S113022070E00E94110C998388838E2F01C08FEF98
S1130230DF91CF91089549EE54E167EE74E18BEEBE
S113024094E1DCDF90E0FC01E256F109E731F105CD
S113025090F78827EE58FF4F8F4F0C94460C60E0C0
S113026070E888EC90E00E94060BE5CF60E070E84F
S113027088E39FEF0E94060BDECF6FEF7FEF88ECE1
S113028090E00E94060BD7CF61E070E088E39FEF17
S11302900E94060BD0CF68E37FEF84EF91E00E94C9
S11302A0060BC9CF68EC70E084EF91E00E94060B66
S11302B0C2CF60E070E080E090E00E94060BBBCF0C
S11302C08FEF80930A0140E855E260E070E080E03F
S11302D00E941D0B40E855E260E070E081E00E945E
S11302E01D0B1092EA141092E9141092E814109263
S11302F0E7140E94B30A67E681E00E94630B7894D6
S113030040E050E061E087EE90E00E94260A40E081
S113031050E062E08BE191E00C94260A0895109A73
S1130320FF93FFB7F894FF93FCB7FF93EF93DF932A
S1130330CF93BF93AF939F938F937F936F935F9369
S11303404F933F932F931F930F93FF92EF92DF925C
S1130350CF92BF92AF929F928F927F926F925F9251
S11303604F923F922F921F920F928DB79EB7909308
S1130370FC148093FB14E091AA14F091AB14EF5F8A
S1130380FE4F808191819EBF8DBF0F901F902F9053
S11303903F904F905F906F907F908F909F90AF9021
S11303A0BF90CF90DF90EF90FF900F911F912F910E
S11303B03F914F915F916F917F918F919F91AF91F9
S11303C0BF91CF91DF91EF91FF91FCBFFF91FFBFF0
S11303D0FF9110980895109AFF93FFB7F894FF9334
S11303E0FCB7FF93EF93DF93CF93BF93AF939F93A8
S11303F08F937F936F935F934F933F932F931F93A9
S11304000F93FF92EF92DF92CF92BF92AF929F929F
S11304108F927F926F925F924F923F922F921F9290
S11304200F92E091AA14F091AB148DB79EB7EF5FD1
S1130430FE4F918380838091FB149091FC149EBFA6
S11304408DBF0F901F902F903F904F905F906F90B3
S11304507F908F909F90AF90BF90CF90DF90EF9060
S1130460FF900F911F912F913F914F915F916F9149
S11304707F918F919F91AF91BF91CF91DF91EF9138
S1130480FF91FCBFFF91FFBFFF9110980895FC01FD
S1130490DB01A95FBE4F1D921C9280819181892B43
S11304A029F471836083738362830895A281B38185
S11304B0A95FBE4F6D937C93738362830895FC019F
S11304C080819181009751F0DC01A95FBE4F2D918D
S11304D03C911197318320831D921C920895809141
S11304E0A3029091A40201969093A4028093A30284
S11304F08091390290913A02892B09F466C0809167
S1130500A902893029F089E392E0D9DFBC0102C055
S11305106BE973E19B0129523F4FFB01E852FF4F06
S113052090E091939F5F9F31E1F7FB01E752FF4F0A
S1130530108280E87F9680838FE1319680833196A4
S11305401082E5EAF2E080819181DB01A550BF4F82
S11305509C938081918111968C9311961C9288EEC4
S113056092E011969C9311968C93129611963C935B
S11305702E9382E012968C938281938111968D93AF
S11305809C938481FB01EA5FFE4F808336968083CF
S11305902091A3023091A4023C97208393E16B390C
S11305A0790719F41092A1140BC090E09C01220F5A
S11305B0331F220F331F820F931F885F9D4F67DF06
S11305C08091A3029091A402089580E090E00895A0
S11305D0CF93CFB7F89483E08093AA02FCDECFBF19
S11305E0CF910895119A8AE08A95F1F700C0119885
S11305F0F9CFF89486E084B980910002309100022A
S11306003F5F76E064E642E02AE054E174B9862F65
S11306109FE7A8E3E1E09150A040E040E1F700C08B
S113062000008150A9F714B888E2FFE798E3A1E03D
S1130630F1509040A040E1F700C000008150A9F7BC
S1130640332359F190E044B9822FEFE7F8E3A1E0B6
S1130650E150F040A040E1F700C000008150A9F74C
S113066014B8822FEFE7F8E3A1E0E150F040A04096
S1130670E1F700C000008150A9F79F5F3913E3CF71
S11306800CC0EFE7F8E391E0E150F0409040E1F76F
S113069000C000008150A9F7B9CF852FF2CFCF93C6
S11306A0DF931F921F92CDB7DEB7E1E8F0E08081BF
S11306B0897F8083808181608083EEEAF3E08AEB26
S11306C093E02BE933E11082DC0119971C92169612
S11306D01C921C971C921B961C9295838483E15F49
S11306E0FE4F815F9E4F8217930769F71092941310
S11306F0109293130DE312E0A5E4B2E025E832E092
S1130700F801AD01118210821382128215821482C3
S1130710CA010297DC011C920196DC011C92DA01E9
S11307201C923996475F5F4FE217F30759F7E7E0EA
S1130730F2E080E0808312821182148213828F5F40
S113074035968A30B9F7EAE8F2E08AE992E0119244
S11307501192E817F907D9F7E9E3F2E00F2EFBEA63
S1130760EF2EF2E0FF2EF02DF182E0828CE892E190
S1130770938382830F2EF5EACF2EF2E0DF2EF02D45
S113078082EF92E0F6019183808389E08483A7DE7F
S113079080E691E0D60111969C938E9314961C9258
S11307A09EDEF092AB14E092AA1481E08093AE0333
S11307B088E092E084DE82E084BD9DE997BD809369
S11307C06E0085E085BD10920202109201020F2E88
S11307D0F7E08F2EF2E09F2EF02D0F2EFBE9EF2E87
S11307E0F3E1FF2EF02D612C712C0F2EFBE94F2E1F
S11307F0F2E05F2EF02D22242394312C09831A83F6
S11308008091AA149091AB14FC01ED5FFE4F2081FE
S1130810213021F48B59934109F06EC0F401818198
S11308209281892BC1F410E01F5F812F90E0FC01BD
S1130830EE0FFF1FEE0FFF1FE80FF91FE95FFD4FDB
S113084021813281232B81F31A3041F4F092AB14CD
S1130850E092AA1449C0862D972D10E09C01220F26
S1130860331F220F331F820F931F885F9D4F27DE94
S11308709093AB148093AA14FC01E55FFE4F208192
S1130880213091F5212F30E0F901EE0FFF1FEE0F1B
S1130890FF1F2E0F3F1FF901E95FFD4F21813281B8
S11308A0232B09F41F5F193029F4F092AB14E09262
S11308B0AA141AC0BC0185E392E0E9DD812F90E01F
S11308C09C01220F331F220F331F820F931F885F57
S11308D09D4FF5DD9093AB148093AA14FC01E55F62
S11308E0FE4F2081213071F2E091AA14F091AB14F3
S11308F0ED5FFE4F81E0808312DD8091AA0290E0DB
S11309008F30910508F06BC5FC018827E757FF4F2E
S11309108F4FBCC7D40111968D919C911297892B4E
S113092009F457C260E06AC280E885B98091010287
S11309309091020201969093020280930102E3E0F7
S1130940F2E080819181009709F470C0FC01E35FBB
S1130950FE4F80819181019791838083D12C68948B
S1130960CC24C1F8BB24B394A12C3CC001151105BF
S113097059F0F801E75FFE4F80819181A3E0B2E076
S11309808D939C9311821082F801ED5FFE4FC0821B
S11309903396808190E09C01220F331F220F331F76
S11309A0820F931FB801885F9D4F71DD8091AA1457
S11309B09091AB14B3E18B399B0771F0D1100CC04B
S11309C0FC01EA5FFE4FD801AA5FBE4FDB2C908189
S11309D08C91891708F0DA2CE3E0F2E080819181B0
S11309E0892B61F0A3E0B2E00D911C91F801E35F63
S11309F0FE4F80819181892B09F4B8CFDD20B1F0BD
S1130A006091AA147091AB14B3E16B397B0771F058
S1130A10FB01ED5FFE4F82E0808333968081E5E049
S1130A208E9FC0011124885F9D4F31DD15B8DBC452
S1130A3056DD9093A00280939F0280919F02909133
S1130A40A002181619060CF0CEC49091A902609168
S1130A50AA147091AB14FB01EA5FFE4F80819817D2
S1130A6008F0C1C4339792E09083F5E08F9FC001F2
S1130A701124885F9D4F0BDDB6C46091AA14709158
S1130A80AB1423E16B39720709F4ADC4FB01ED5FCC
S1130A90FE4F108289E392E0FADCA5C40091AA1407
S1130AA01091AB1443E10B39140709F49CC4F80109
S1130AB0EA5FFE4F808190E09C01220F331F220FDA
S1130AC0331F820F931FB801885F9D4FE0DCF8014C
S1130AD0ED5FFE4F82E0808386C4A091AA14B0919A
S1130AE0AB1483E1AB39B80709F47DC484E0FD019C
S1130AF0ED5FFE4F8083E3E0F2E0408151814115D8
S1130B00510571F0FA01E35FFE4F608171818091BC
S1130B109D0290919E026817790708F44DC066C43F
S1130B20E3E0F2E0B183A083FD01E75FFE4F1182B1
S1130B30108280919D0290919E02A35FBE4F8D937F
S1130B409C9351C4F901E35FFE4F80819181860F2C
S1130B50971FE0919D02F0919E028E179F0750F11E
S1130B60FD01E75FFE4F3183208380919D029091C8
S1130B709E02861B970B349691838083F901E35F71
S1130B80FE4F008111816801C81AD90AD182C0823E
S1130B904115510549F4E3E0F2E0B183A083211546
S1130BA0310509F020C412C0FA01E75FFE4FB1839A
S1130BB0A08319C4BC01A901FA01E75FFE4F20819B
S1130BC031812115310509F0BDCF01C0A901FA0118
S1130BD0E75FFE4FB183A083FD01E75FFE4F118203
S1130BE01082B0930602A093050280919D02909119
S1130BF09E02A35FBE4F861B970B8D939C93F3C3FA
S1130C006091AA147091AB14F3E16B397F0709F476
S1130C10EAC32091A1023091A202FB01F3958081E5
S1130C2090E08217930751F0D40111962D913C91D5
S1130C3012972115310571F010E022C0FB01E55F28
S1130C40FE4F81E08083389782E0808388E092E0E1
S1130C501EDCC9C310E01F5F812F90E0FC01EE0F82
S1130C60FF1FEE0FFF1F8E0F9F1FFC01E95FFD4F5B
S1130C70218132812115310571F31A3008F0CFC377
S1130C804091A1025091A202F901F395808190E074
S1130C908417950771F0D22E032F5F0120C0409175
S1130CA0A1025091A202F501808190E0841795077A
S1130CB0B1F4F901E55FFE4F81E0808394C3409174
S1130CC0A1025091A202DF01B3958C9190E08417A8
S1130CD0950739F4E55FFE4F81E0808384C3ED2DF1
S1130CE0F02FE95FFE4F0190F081E02D309739F746
S1130CF01F5F1A30A0F293C380913F02909140028B
S1130D004091A1025091A202FC01F395208130E0B0
S1130D1024173507A1F0A981BA8160E025C01B968C
S1130D208D919C911C974091A1025091A202199619
S1130D30FC01F395208130E024173507A9F4FC0168
S1130D40E55FFE4F21E020834EC34091A102509104
S1130D50A202FC01F395208130E02417350721F429
S1130D603B9681E080833FC3FC01E95FFE4F8081B5
S1130D709181009751F76F5F671788F254C3AAE80F
S1130D80B2E04D915C916091A1027091A202FA01CE
S1130D90F395808190E086179707A1F40DC04191E7
S1130DA051916091A1027091A202DA01B3958C91E4
S1130DB090E08617970749F4FA01E55FFE4F81E05A
S1130DC0808311C3ECE8F2E020E02F5F2313E7CF28
S1130DD00AC360E06F5F862F90E0FC01EE0FFF1FF7
S1130DE0EE0FFF1F8E0F9F1FFC01E95FFD4F8181F6
S1130DF09281892B79F3693008F063C0862F90E0E3
S1130E00FC01EE0FFF1FEE0FFF1F8E0F9F1FFC0153
S1130E10E95FFD4F818192814091A1025091A2022C
S1130E20FC01F395208130E024173507E1F010E050
S1130E3071E039C0862F90E0FC01EE0FFF1FEE0F2A
S1130E40FF1F8E0F9F1FFC01E95FFD4F818192817F
S1130E504091A1025091A202FC01F395208130E05F
S1130E602417350701F5FC01E55FFE4F1082DC0114
S1130E70AA5FBE4F319680818C93B5C24091A10286
S1130E805091A202FC01F395208130E0241735072C
S1130E9051F43B9610823597DC01A45FBE4F8C91D0
S1130EA08083172F07C0FC01E95FFE4F8081918189
S1130EB0009721F76F5F693008F4BCCF113011F44B
S1130EC092C210E085E392E0FADA4091A1025091D7
S1130ED0A202FC01F395208130E02417350709F0C4
S1130EE0ACC20BC04091A1025091A202FC01F39547
S1130EF0208130E02417350791F4FC01E45FFE4FB4
S1130F0020813697208335961082B5E02B9F90017F
S1130F101124BC01C901885F9D4FB9DA64C2BC01C8
S1130F2085E392E0B4DA85E392E0C9DA0150D1F6C0
S1130F3070918502772309F47BC280913F029091DE
S1130F4040024091A1025091A202FC01F39520813C
S1130F5030E024173507A1F0A981BA8160E023C0ED
S1130F601B968D919C911C974091A1025091A202D5
S1130F701996FC01F395208130E02417350799F484
S1130F80FC01E55FFE4F10822EC24091A1025091F8
S1130F90A202FC01F395208130E02417350719F4EF
S1130FA03B96108220C2FC01E95FFE4F8081918153
S1130FB0009759F7113009F416C26F5F671780F272
S1130FC037C2EAE8F2E0408151816091A102709158
S1130FD0A202FA01F395808190E08617970799F4AD
S1130FE00DC0419151916091A1027091A202DA0168
S1130FF0B3958C9190E08617970741F4FA01E55F69
S1131000FE4F1082F0C1ECE8F2E020E02F5F2313E2
S1131010E8CF82E080930002ECDA60929B02709247
S11310209C0280919A02883008F0DDC1282F30E0BC
S11310302F5F3F4F30939C0220939B028F5F8093DE
S11310409A02D1C14091AA145091AB14F3E14B39E7
S11310505F0709F4C8C1D2018C91815090919A0222
S1131060891720F084E080930002C3DA282F30E04F
S1131070F901EE0FFF1FE657FD4F60817181672B69
S113108031F08AE08093000280E885B9B2DAB101D8
S113109002C0660F771F8A95E2F7809188029091CB
S11310A0890286239723892B69F080918802909185
S11310B089026095709568237923709389026093FF
S11310C0880291C1FA01ED5FFE4F83E08083220F15
S11310D0331FF901E657FD4F5183408384C1D20188
S11310E0EC91E15080919A02E81720F083E080931C
S11310F000027FDAF0E0EE0FFF1FE657FD4F00819C
S113110011810115110509F46EC182E0F801ED5F4A
S1131110FE4F80833396808190E09C01220F331F21
S1131120220F331F820F931FB801885F9D4FAFD9E1
S11311306091AA147091AB14B3E16B397B0709F485
S113114052C1F801EA5FFE4FDB01AA5FBE4F9C91DA
S11311508081891708F047C1FB01ED5FFE4F82E0F3
S11311608083FD018081E5E08E9FC0011124885FAA
S11311709D4F8DD938C1609286027092870280910A
S11311808502883008F02FC1282F30E02F5F3F4FB1
S113119030938702209386028F5F8093850223C158
S11311A06091AA147091AB14F3E16B397F0709F4D1
S11311B01AC1A6E8B2E02C9121508091850228172B
S11311C020F087E08093000214DA30E0F901EE0F9A
S11311D0FF1FEE0FFF1FEE0FFF1FE20FF31FE35C75
S11311E0FD4F80819181009799F489E0829FF001FD
S11311F0839FF00D1124E35CFD4F7183608381E0D4
S11312008683DB01AA5FBE4F8C9187838087EBC006
S11312106817790761F489E0829FF001839FF00DDC
S11312201124E35CFD4F86818F5F8683DCC0FB0164
S1131230EA5FFE4F908189E0829FF001839FF00D69
S11312401124E35CFD4F80859817D0F489E0829FD8
S1131250A001839F500D1124FA01E35CFD4F908798
S11312600190F081E02DEA5FFE4F9083FB01ED5F7A
S1131270FE4F83E08083CA01815C9D4F08D9B3C0CF
S1131280FB01ED5FFE4F83E0808349E0429FC00194
S1131290439F900D1124815C9D4FF9D8A4C0E6E8CA
S11312A0F2E00081015080918502081720F088E067
S11312B0809300029ED910E0F801EE0FFF1FEE0F9D
S11312C0FF1FEE0FFF1FE00FF11FE35CFD4FC08017
S11312D0D1808091AA149091AB14C816D90621F03C
S11312E089E08093000285D9F801EE0FFF1FEE0F0D
S11312F0FF1FEE0FFF1FE00FF11FE35CFD4F868120
S1131300823058F099E0909FF001919FF00D1124E4
S1131310E35CFD4F8150868366C089E0809FF001C5
S1131320819FF00D1124E35CFD4F8781D601AA5FF4
S1131330BE4F8C9316968C9382819381892B71F482
S113134089E0809FF001819FF00D1124E35CFD4F43
S11313501682178210861182108245C029E0209FD0
S1131360C001219F900D1124815C9D4FA8D85C0180
S1131370F601EA5FFE4F8081F501EA5FFE4F90813E
S1131380981768F4F601ED5FFE4F92E09083F5E064
S11313908F9FC0011124B601885F9D4F78D889E0E2
S11313A0809FF001819FF00D1124E35CFD4FB18219
S11313B0A08281E08683D501AA5FBE4F8C9187838A
S11313C08087F501ED5FFE4F92E0908325E0829FD8
S11313D0C0011124B501885F9D4F59D804C086E02F
S11313E08093000206D91092AA020ACAFD01E75F9F
S11313F0FE4F5183408320919D0230919E0234968A
S113140031832083FA01E35FFE4F80819181821B47
S1131410930B918380839A01662D772DBCCB7091B9
S11314208502711169CC30919A023111A8CCDBCFBD
S113143030919A023111C5CDECCDBC0185E392E027
S113144026D885E392E03BD80FE04CCDCF93CFB7BD
S1131450F894E5EAF2E091838083538342836483C2
S113146082E08093AA020E94EB0180919F029091F6
S1131470A002CFBFCF910895CF93CFB7F89428E0BF
S11314802093AA0290939E0280939D020E94EB01F6
S1131490CFBFCF91089580E884B915B800D9FF93E0
S11314A0FFB7F894F068FF93FCB7FF93EF93DF93D3
S11314B0CF93BF93AF939F938F937F936F935F93D8
S11314C04F933F932F931F930F93FF92EF92DF92CB
S11314D0CF92BF92AF929F928F927F926F925F92C0
S11314E04F923F922F921F920F92E091AA14F09183
S11314F0AB148DB79EB7EF5FFE4F918380838091CD
S1131500FB149091FC149EBF8DBF81E08093AA02CE
S11315108091FB149091FC149EBF8DBF0F901F907F
S11315202F903F904F905F906F907F908F909F90FF
S1131530AF90BF90CF90DF90EF90FF900F911F91ED
S11315402F913F914F915F916F917F918F919F91D7
S1131550AF91BF91CF91DF91EF91FF91FCBFFF91CC
S1131560FFBFFF9108953D9A45982FEF39E688E132
S1131570215030408040E1F700C00000459A9FEFC1
S113158027EA31E6915020403040E1F700C00000E6
S113159083E045989FEF20E732E0915020403040AF
S11315A0E1F700C00000459A9FEF20E732E0915038
S11315B020403040E1F700C00000815051F7D5D001
S11315C080E8F6D08FEF99EF20E0815090402040E2
S11315D0E1F700C0000081E8EBD089E0E9D03FEFFB
S11315E081EE94E0315080409040E1F700C000006B
S11315F081E0BBD082E8DCD02FEF39EF80E02150CE
S113160030408040E1F700C0000008950F931F931D
S1131610CF93DF93182F092FC62FD72F89E8C8D06F
S1131620802FC6D0812FC4D08D2FC2D08C2FC0D094
S1131630DF91CF911F910F9108959A01AB018130F1
S1131640A9F028F0823009F1833071F1089560E443
S113165072E48FE090E0F8D0215031093093C50056
S11316602093C40088E18093C100089560E472E48B
S11316708FE090E0E9D0215031093093CD002093E0
S1131680CC0088E18093C900089560E472E48FE09F
S113169090E0DAD0215031093093D5002093D40062
S11316A088E18093D100089560E472E48FE090E0D3
S11316B0CBD021503109309335012093340188E196
S11316C0809331010895813071F028F0823099F0CF
S11316D08330C9F00895E0ECF0E0808185FFFDCF10
S11316E06093C6000895E8ECF0E0808185FFFDCFAB
S11316F06093CE000895E0EDF0E0808185FFFDCF9A
S11317006093D6000895E0E3F1E0808185FFFDCF8A
S1131710609336010895813071F028F0823099F099
S11317208330C9F020C0E0ECF0E080818823ECF73E
S11317308091C6000895E8ECF0E080818823ECF7FE
S11317408091CE000895E0EDF0E080818823ECF7ED
S11317508091D6000895E0E3F1E080818823ECF7DE
S113176080913601089580E0089592E09093D0002E
S113177098E99093D10096E09093D2001092D5000E
S1131780813041F018F0823049F00CC087E6809334
S1131790D4000BC083E38093D40007C082E280931B
S11317A0D40003C087E68093C4001092AC1408955B
S11317B0E0EDF0E0908195FFFDCF8093D600089591
S11317C01F920F920FB60F9211240BB60F928F93A4
S11317D09F93EF93FF93E0EDF0E080818823ECF793
S11317E0E091AC14F0E08091D600E355FB4E808389
S11317F08091AC1490E001968F719078992324F431
S11318000197806E9F6F01968093AC14FF91EF91C6
S11318109F918F910F900BBE0F900FBE0F901F9052
S1131820189597FB072E16F4009406D077FD08D080
S113183035D007FC05D03EF4909581959F4F0895CF
S1131840709561957F4F0895A1E21A2EAA1BBB1BC8
S1131850FD010DC0AA1FBB1FEE1FFF1FA217B30778
S1131860E407F50720F0A21BB30BE40BF50B661F8E
S1131870771F881F991F1A9469F760957095809552
S113188090959B01AC01BD01CF010895EE0FFF1FA0
S1131890881F8BBF0790F691E02D1994AA1BBB1BE0
S11318A051E107C0AA1FBB1FA617B70710F0A61B5C
S11318B0B70B881F991F5A95A9F780959095BC017D
S10B18C0CD010895F894FFCF57
S9030000FC
