S01D000050726F6A656374335F626173655F73746174696F6E2E73726563A2
S113000080C000009FC000009DC000009BC0000095
S113001099C0000097C0000095C0000093C0000084
S113002091C000008FC000008DC000008BC0000094
S113003089C0000087C0000085C0000083C00000A4
S113004081C000007FC000007DC000007BC00000B4
S113005079C000000C94440A75C0000073C000000D
S113006071C000006FC000006DC000006BC00000D4
S113007069C0000067C0000065C0000063C00000E4
S113008061C000005FC000005DC000005BC00000F4
S113009059C0000057C0000055C0000053C0000004
S11300A051C000004FC000004DC000004BC0000014
S11300B049C0000047C0000045C0000043C0000024
S11300C041C000003FC000003DC000000C94280B5C
S11300D039C0000037C0000035C0000033C0000044
S11300E031C00000F70998041C0541055205F309C5
S11300F004068E047105110826087308BF08D40885
S1130100530911241FBECFEFD1E2DEBFCDBF00E003
S11301100CBF12E0A0E0B2E0E4E1FDE100E00BBFBF
S113012002C007900D92A431B107D9F724E1A4E1EC
S1130130B2E001C01D92A93FB207E1F70E94400A54
S11301400C94880E5DCFEAE7F0E0808180648083C0
S11301500895ECE7F0E010828081806480838081E0
S1130160806280830895ECE7F0E0108280818064EF
S11301708083808180628083808181608083089510
S1130180C9E7D0E00F2EF0E0CF2EF2E0DF2EF02D05
S11301900F2EF2E0EF2EF2E0FF2EF02DDADF888151
S11301A04AE061EE74E190E00E94830B188181EED5
S11301B094E19F938F931F920E94E20ADF92CF9261
S11301C01F920E94E20ACFDF88814AE06DEE74E15B
S11301D090E00E94830B08818DEE94E19F938F93AE
S11301E01F920E94E20AFF92EF921F920E94E20A7B
S11301F08DB79EB70C960FB6F8949EBF0FBE8DBFF9
S113020011110BC001112EC06CE681E00E94CD0AD1
S11302106CE680E00E94CD0A2DC01F3F59F40F37D1
S113022009F562E781E00E94CD0A62E780E00E945E
S1130230CD0A20C01F37B1F40F3F49F462E681E0D4
S11302400E94CD0A62E680E00E94CD0A13C001112B
S113025009C066E681E00E94CD0A66E680E00E945D
S1130260CD0A08C064E681E00E94CD0A64E680E01D
S11302700E94CD0A9FEF24E38CE0915020408040FF
S1130280E1F700C000008ACFECE7F0E080818064F1
S11302908083808180628083EAE7F0E080818068E7
S11302A08083808180628083808187608083808175
S11302B080648083EBE7F0E08081887F808343CF94
S11302C00895CF93F894E0DF11B8C1E0C2B940E8D3
S11302D055E260E070E080E00E94A80A8EE092E0BF
S11302E09F938F931F920E94E20A40E855E260E0D8
S11302F070E081E00E94A80A789484E092E09F93E1
S11303008F93CF930E94E20A40E050E061E080ECDA
S113031090E00E942A0A0F900F900F900F900F9078
S11303200F90CF910895109AFF93FFB7F894FF931D
S1130330FCB7FF93EF93DF93CF93BF93AF939F9358
S11303408F937F936F935F934F933F932F931F9359
S11303500F93FF92EF92DF92CF92BF92AF929F9250
S11303608F927F926F925F924F923F922F921F9241
S11303700F928DB79EB79093F8148093F714E09181
S1130380BE14F091BF14EF5FFE4F808191819EBF38
S11303908DBF0F901F902F903F904F905F906F9064
S11303A07F908F909F90AF90BF90CF90DF90EF9011
S11303B0FF900F911F912F913F914F915F916F91FA
S11303C07F918F919F91AF91BF91CF91DF91EF91E9
S11303D0FF91FCBFFF91FFBFFF9110980895109A01
S11303E0FF93FFB7F894FF93FCB7FF93EF93DF936A
S11303F0CF93BF93AF939F938F937F936F935F93A9
S11304004F933F932F931F930F93FF92EF92DF929B
S1130410CF92BF92AF929F928F927F926F925F9290
S11304204F923F922F921F920F92E091BE14F0913F
S1130430BF148DB79EB7EF5FFE4F91838083809189
S1130440F7149091F8149EBF8DBF0F901F902F90BA
S11304503F904F905F906F907F908F909F90AF9060
S1130460BF90CF90DF90EF90FF900F911F912F914D
S11304703F914F915F916F917F918F919F91AF9138
S1130480BF91CF91DF91EF91FF91FCBFFF91FFBF2F
S1130490FF9110980895FC01DB01A95FBE4F1D92E6
S11304A01C9280819181892B29F4718360837383E9
S11304B062830895A281B381A95FBE4F6D937C933B
S11304C0738362830895FC0180819181009751F0C8
S11304D0DC01A95FBE4F2D913C911197318320839C
S11304E01D921C9208958091B7029091B8020196D2
S11304F09093B8028093B70280914D0290914E027E
S1130500892B09F466C08091BD02893029F08DE4FD
S113051092E0D9DFBC0102C06FEA73E19B0129526A
S11305203F4FFB01E852FF4F90E091939F5F9F3153
S1130530E1F7FB01E752FF4F108280E87F9680834A
S11305408FE13196808331961082E9EBF2E080816D
S11305509181DB01A550BF4F9C93808191811196BD
S11305608C9311961C928CEE92E011969C931196AA
S11305708C93129611963C932E9382E012968C9350
S11305808281938111968D939C938481FB01EA5F10
S1130590FE4F8083369680832091B7023091B80253
S11305A03C97208393E16F3A790719F41092B514BC
S11305B00BC090E09C01220F331F220F331F820FC8
S11305C0931F845E9D4F67DF8091B7029091B802BC
S11305D0089580E090E00895CF93CFB7F89483E036
S11305E08093BE02FCDECFBFCF910895119A8AE0BA
S11305F08A95F1F700C01198F9CFF89486E084B990
S113060080911402309114023F5F76E064E642E088
S11306102AE054E174B9862F9FE7A8E3E1E0915002
S1130620A040E040E1F700C000008150A9F714B8F1
S113063088E2FFE798E3A1E0F1509040A040E1F7A1
S113064000C000008150A9F7332359F190E044B968
S1130650822FEFE7F8E3A1E0E150F040A040E1F79A
S113066000C000008150A9F714B8822FEFE7F8E327
S1130670A1E0E150F040A040E1F700C0000081504B
S1130680A9F79F5F3913E3CF0CC0EFE7F8E391E0DC
S1130690E150F0409040E1F700C000008150A9F71C
S11306A0B9CF852FF2CFCF93DF931F921F92CDB78F
S11306B0DEB7E1E8F0E08081897F8083808181601A
S11306C08083E2ECF3E08EEC93E02FEA33E11082D6
S11306D0DC0119971C9216961C921C971C921B966F
S11306E01C9295838483E15FFE4F815F9E4F821746
S11306F0930769F71092A8131092A71301E512E06B
S1130700A9E5B2E029E932E0F801AD0111821082D5
S11307101382128215821482CA010297DC011C9290
S11307200196DC011C92DA011C923996475F5F4FF7
S1130730E217F30759F7EBE1F2E080E080831282DD
S11307401182148213828F5F35968A30B9F7EEE9ED
S1130750F2E08EEA92E011921192E817F907D9F7C4
S1130760EDE4F2E00F2EFFEBEF2EF2E0FF2EF02D82
S1130770F182E08280EA92E1938382830F2EF9EB87
S1130780CF2EF2E0DF2EF02D86EF92E0F60191837A
S1130790808389E08483A7DE81E691E0D601119607
S11307A09C938E9314961C929EDEF092BF14E0925A
S11307B0BE1481E08093C2038CE192E084DE82E087
S11307C084BD9DE997BD80936E0085E085BD109240
S11307D01602109215020F2EFBE18F2EF2E09F2ECF
S11307E0F02D0F2EFFEAEF2EF3E1FF2EF02D612CFA
S11307F0712C0F2EFFEA4F2EF2E05F2EF02D2224F3
S11308002394312C09831A838091BE149091BF14D0
S1130810FC01ED5FFE4F2081213021F48F5A93417A
S113082009F06EC0F40181819281892BC1F410E03A
S11308301F5F812F90E0FC01EE0FFF1FEE0FFF1FE3
S1130840E80FF91FE55EFD4F21813281232B81F3EF
S11308501A3041F4F092BF14E092BE1449C0862DC0
S1130860972D10E09C01220F331F220F331F820F9C
S1130870931F845E9D4F27DE9093BF148093BE1414
S1130880FC01E55FFE4F2081213091F5212F30E0FE
S1130890F901EE0FFF1FEE0FFF1F2E0F3F1FF9018F
S11308A0E55EFD4F21813281232B09F41F5F19304E
S11308B029F4F092BF14E092BE141AC0BC0189E47A
S11308C092E0E9DD812F90E09C01220F331F220F7B
S11308D0331F820F931F845E9D4FF5DD9093BF14E9
S11308E08093BE14FC01E55FFE4F2081213071F23C
S11308F0E091BE14F091BF14ED5FFE4F81E0808360
S113090012DD8091BE0290E08F30910508F06BC536
S1130910FC018827EE58FF4F8F4FEDC6D401119686
S11309208D919C911297892B09F457C260E06AC299
S113093080E885B9809115029091160201969093F2
S1130940160280931502E7E1F2E08081918100971D
S113095009F470C0FC01E35FFE4F8081918101972F
S113096091838083D12C6894CC24C1F8BB24B394A4
S1130970A12C3CC00115110559F0F801E75FFE4FA9
S113098080819181A7E1B2E08D939C9311821082C2
S1130990F801ED5FFE4FC0823396808190E09C01A8
S11309A0220F331F220F331F820F931FB801845E5F
S11309B09D4F71DD8091BE149091BF14B3E18F3AC5
S11309C09B0771F0D1100CC0FC01EA5FFE4FD80107
S11309D0AA5FBE4FDB2C90818C91891708F0DA2C2A
S11309E0E7E1F2E080819181892B61F0A7E1B2E037
S11309F00D911C91F801E35FFE4F80819181892B59
S1130A0009F4B8CFDD20B1F06091BE147091BF1429
S1130A10B3E16F3A7B0771F0FB01ED5FFE4F82E0BB
S1130A20808333968081E5E08E9FC0011124845E2B
S1130A309D4F31DD15B8DBC456DD9093B40280932D
S1130A40B3028091B3029091B402181619060CF007
S1130A50CEC49091BD026091BE147091BF14FB018D
S1130A60EA5FFE4F8081981708F0C1C4339792E083
S1130A709083F5E08F9FC0011124845E9D4F0BDDB0
S1130A80B6C46091BE147091BF1423E16F3A72072B
S1130A9009F4ADC4FB01ED5FFE4F10828DE492E0DA
S1130AA0FADCA5C40091BE141091BF1443E10F3ABF
S1130AB0140709F49CC4F801EA5FFE4F808190E0BA
S1130AC09C01220F331F220F331F820F931FB80183
S1130AD0845E9D4FE0DCF801ED5FFE4F82E0808391
S1130AE086C4A091BE14B091BF1483E1AF3AB80795
S1130AF009F47DC484E0FD01ED5FFE4F8083E7E1EE
S1130B00F2E0408151814115510571F0FA01E35F32
S1130B10FE4F608171818091B1029091B202681799
S1130B20790708F44DC066C4E7E1F2E0B183A0831D
S1130B30FD01E75FFE4F118210828091B102909116
S1130B40B202A35FBE4F8D939C9351C4F901E35F3E
S1130B50FE4F80819181860F971FE091B102F09141
S1130B60B2028E179F0750F1FD01E75FFE4F3183FC
S1130B7020838091B1029091B202861B970B349628
S1130B8091838083F901E35FFE4F00811181680145
S1130B90C81AD90AD182C0824115510549F4E7E146
S1130BA0F2E0B183A0832115310509F020C412C0FD
S1130BB0FA01E75FFE4FB183A08319C4BC01A90108
S1130BC0FA01E75FFE4F208131812115310509F0DB
S1130BD0BDCF01C0A901FA01E75FFE4FB183A08335
S1130BE0FD01E75FFE4F11821082B0931A02A093B9
S1130BF019028091B1029091B202A35FBE4F861B8D
S1130C00970B8D939C93F3C36091BE147091BF14A2
S1130C10F3E16F3A7F0709F4EAC32091B5023091FA
S1130C20B602FB01F395808190E08217930751F09F
S1130C30D40111962D913C9112972115310571F033
S1130C4010E022C0FB01E55FFE4F81E0808338970E
S1130C5082E080838CE192E01EDCC9C310E01F5F58
S1130C60812F90E0FC01EE0FFF1FEE0FFF1F8E0F90
S1130C709F1FFC01E55EFD4F218132812115310565
S1130C8071F31A3008F0CFC34091B5025091B60207
S1130C90F901F395808190E08417950771F0D22EC5
S1130CA0032F5F0120C04091B5025091B602F501B7
S1130CB0808190E084179507B1F4F901E55FFE4F58
S1130CC081E0808394C34091B5025091B602DF0164
S1130CD0B3958C9190E08417950739F4E55FFE4F46
S1130CE081E0808384C3ED2DF02FE95FFE4F0190F6
S1130CF0F081E02D309739F71F5F1A30A0F293C3CB
S1130D0080915302909154024091B5025091B602E1
S1130D10FC01F395208130E024173507A1F0A98167
S1130D20BA8160E025C01B968D919C911C974091DF
S1130D30B5025091B6021996FC01F395208130E07A
S1130D4024173507A9F4FC01E55FFE4F21E0208359
S1130D504EC34091B5025091B602FC01F395208137
S1130D6030E02417350721F43B9681E080833FC3AC
S1130D70FC01E95FFE4F80819181009751F76F5F1D
S1130D80671788F254C3AEE9B2E04D915C9160916B
S1130D90B5027091B602FA01F395808190E086174E
S1130DA09707A1F40DC0419151916091B5027091E2
S1130DB0B602DA01B3958C9190E08617970749F44F
S1130DC0FA01E55FFE4F81E0808311C3E0EAF2E0BF
S1130DD020E02F5F2313E7CF0AC360E06F5F862F05
S1130DE090E0FC01EE0FFF1FEE0FFF1F8E0F9F1F01
S1130DF0FC01E55EFD4F81819281892B79F3693095
S1130E0008F063C0862F90E0FC01EE0FFF1FEE0F89
S1130E10FF1F8E0F9F1FFC01E55EFD4F81819281B4
S1130E204091B5025091B602FC01F395208130E067
S1130E3024173507E1F010E071E039C0862F90E007
S1130E40FC01EE0FFF1FEE0FFF1F8E0F9F1FFC0113
S1130E50E55EFD4F818192814091B5025091B602C9
S1130E60FC01F395208130E02417350701F5FC01DE
S1130E70E55FFE4F1082DC01AA5FBE4F3196808190
S1130E808C93B5C24091B5025091B602FC01F39522
S1130E90208130E02417350751F43B9610823597B2
S1130EA0DC01A45FBE4F8C918083172F07C0FC0127
S1130EB0E95FFE4F80819181009721F76F5F693070
S1130EC008F4BCCF113011F492C210E089E492E02E
S1130ED0FADA4091B5025091B602FC01F3952081F3
S1130EE030E02417350709F0ACC20BC04091B502BD
S1130EF05091B602FC01F395208130E024173507A8
S1130F0091F4FC01E45FFE4F2081369720833596EF
S1130F101082B5E02B9F90011124BC01C901845EAD
S1130F209D4FB9DA64C2BC0189E492E0B4DA89E481
S1130F3092E0C9DA0150D1F670919902772309F44D
S1130F407BC280915302909154024091B50250911A
S1130F50B602FC01F395208130E024173507A1F097
S1130F60A981BA8160E023C01B968D919C911C9746
S1130F704091B5025091B6021996FC01F395208177
S1130F8030E02417350799F4FC01E55FFE4F108229
S1130F902EC24091B5025091B602FC01F395208116
S1130FA030E02417350719F43B96108220C2FC0167
S1130FB0E95FFE4F80819181009759F7113009F460
S1130FC016C26F5F671780F237C2EEE9F2E0408124
S1130FD051816091B5027091B602FA01F395808156
S1130FE090E08617970799F40DC041915191609153
S1130FF0B5027091B602DA01B3958C9190E0861730
S1131000970741F4FA01E55FFE4F1082F0C1E0EA70
S1131010F2E020E02F5F2313E8CF82E080931402F4
S1131020ECDA6092AF027092B0028091AE02883026
S113103008F0DDC1282F30E02F5F3F4F3093B0021E
S11310402093AF028F5F8093AE02D1C14091BE1452
S11310505091BF14F3E14F3A5F0709F4C8C1D201BC
S11310608C9181509091AE02891720F084E0809396
S11310701402C3DA282F30E0F901EE0FFF1FE25605
S1131080FD4F60817181672B31F08AE080931402F7
S113109080E885B9B2DAB10102C0660F771F8A957C
S11310A0E2F780919C0290919D0286239723892BDD
S11310B069F080919C0290919D02609570956823DF
S11310C0792370939D0260939C0291C1FA01ED5FB4
S11310D0FE4F83E08083220F331FF901E256FD4F58
S11310E05183408384C1D201EC91E1508091AE02DE
S11310F0E81720F083E0809314027FDAF0E0EE0F2B
S1131100FF1FE256FD4F008111810115110509F4FD
S11311106EC182E0F801ED5FFE4F808333968081DB
S113112090E09C01220F331F220F331F820F931F65
S1131130B801845E9D4FAFD96091BE147091BF1405
S1131140B3E16F3A7B0709F452C1F801EA5FFE4F3D
S1131150DB01AA5FBE4F9C918081891708F047C1CB
S1131160FB01ED5FFE4F82E08083FD018081E5E0BD
S11311708E9FC0011124845E9D4F8DD938C1609229
S11311809A0270929B0280919902883008F02FC1D4
S1131190282F30E02F5F3F4F30939B0220939A0219
S11311A08F5F8093990223C16091BE147091BF1424
S11311B0F3E16F3A7F0709F41AC1AAE9B2E02C916E
S11311C0215080919902281720F087E0809314021F
S11311D014DA30E0F901EE0FFF1FEE0FFF1FEE0FE0
S11311E0FF1FE20FF31FEF5AFD4F8081918100979B
S11311F099F489E0829FF001839FF00D1124EF5A46
S1131200FD4F7183608381E08683DB01AA5FBE4F5B
S11312108C9187838087EBC06817790761F489E034
S1131220829FF001839FF00D1124EF5AFD4F8681B8
S11312308F5F8683DCC0FB01EA5FFE4F908189E00B
S1131240829FF001839FF00D1124EF5AFD4F80859A
S11312509817D0F489E0829FA001839F500D112438
S1131260FA01EF5AFD4F90870190F081E02DEA5F7B
S1131270FE4F9083FB01ED5FFE4F83E08083CA0144
S11312808D5A9D4F08D9B3C0FB01ED5FFE4F83E03B
S1131290808349E0429FC001439F900D11248D5AE1
S11312A09D4FF9D8A4C0EAE9F2E000810150809191
S11312B09902081720F088E0809314029ED910E068
S11312C0F801EE0FFF1FEE0FFF1FEE0FFF1FE00FE1
S11312D0F11FEF5AFD4FC080D1808091BE149091D0
S11312E0BF14C816D90621F089E08093140285D969
S11312F0F801EE0FFF1FEE0FFF1FEE0FFF1FE00FB1
S1131300F11FEF5AFD4F8681823058F099E0909F8B
S1131310F001919FF00D1124EF5AFD4F8150868307
S113132066C089E0809FF001819FF00D1124EF5A7F
S1131330FD4F8781D601AA5FBE4F8C9316968C937E
S113134082819381892B71F489E0809FF001819FD0
S1131350F00D1124EF5AFD4F168217821086118268
S1131360108245C029E0209FC001219F900D1124C7
S11313708D5A9D4FA8D85C01F601EA5FFE4F80812B
S1131380F501EA5FFE4F9081981768F4F601ED5F6E
S1131390FE4F92E09083F5E08F9FC0011124B601C7
S11313A0845E9D4F78D889E0809FF001819FF00D85
S11313B01124EF5AFD4FB182A08281E08683D501CA
S11313C0AA5FBE4F8C9187838087F501ED5FFE4F46
S11313D092E0908325E0829FC0011124B501845ED0
S11313E09D4F59D804C086E08093140206D9109208
S11313F0BE020ACAFD01E75FFE4F5183408320917C
S1131400B1023091B202349631832083FA01E35F52
S1131410FE4F80819181821B930B918380839A017B
S1131420662D772DBCCB70919902711169CC3091E6
S1131430AE023111A8CCDBCF3091AE023111C5CD53
S1131440ECCDBC0189E492E026D889E492E03BD853
S11314500FE04CCDCF93CFB7F894E9EBF2E0918352
S1131460808353834283648382E08093BE020E941C
S1131470EF018091B3029091B402CFBFCF91089550
S113148080E884B915B80FD9FF93FFB7F894F068D2
S1131490FF93FCB7FF93EF93DF93CF93BF93AF9387
S11314A09F938F937F936F935F934F933F932F9368
S11314B01F930F93FF92EF92DF92CF92BF92AF925E
S11314C09F928F927F926F925F924F923F922F9250
S11314D01F920F92E091BE14F091BF148DB79EB786
S11314E0EF5FFE4F918380838091F7149091F814FD
S11314F09EBF8DBF81E08093BE028091F7149091CE
S1131500F8149EBF8DBF0F901F902F903F904F9067
S11315105F906F907F908F909F90AF90BF90CF908F
S1131520DF90EF90FF900F911F912F913F914F917A
S11315305F916F917F918F919F91AF91BF91CF9167
S1131540DF91EF91FF91FCBFFF91FFBFFF910895E1
S11315509A01AB01882319F0813081F0089560E489
S113156072E48FE090E0A5D0215031093093C5009A
S11315702093C40088E18093C100089560E472E47C
S11315808FE090E096D0215031093093CD00209324
S1131590CC0088E18093C9000895882319F0813034
S11315A049F00895E0ECF0E0808185FFFDCF609381
S11315B0C6000895E8ECF0E0808185FFFDCF6093DC
S11315C0CE000895DF92EF92FF920F931F93CF9373
S11315D0DF93CDB7DEB7C054D1090FB6F894DEBFA0
S11315E00FBECDBF2C960FAD2C97DFB6F8949E019D
S11315F0225B3F4F2E964EAD5FAD2E9760E470E0B8
S1131600CE010196A3D07C01892B91F090E011E0EA
S1131610190FE1E0F0E0EC0FFD1FE90FF11D60810F
S1131620802FBBDF912F212F30E02E153F0578F35B
S1131630DFBEC05CDF4F0FB6F894DEBF0FBECDBF78
S1131640DF91CF911F910F91FF90EF90DF9008955C
S11316501F920F920FB60F9211240BB60F928F9315
S11316609F93EF93FF93E0EDF0E080818823ECF704
S1131670E091C014F0E08091D600EF53FB4E8083DC
S11316808091C01490E001968F719078992324F48E
S11316900197806E9F6F01968093C014FF91EF9124
S11316A09F918F910F900BBE0F900FBE0F901F90C4
S11316B01895A1E21A2EAA1BBB1BFD010DC0AA1F7F
S11316C0BB1FEE1FFF1FA217B307E407F50720F0A7
S11316D0A21BB30BE40BF50B661F771F881F991F22
S11316E01A9469F760957095809590959B01AC016B
S11316F0BD01CF010895EE0FFF1F881F8BBF079018
S1131700F691E02D1994BB274A3031F4992322F441
S1131710BDE2909581959F4F01C0BB27FB015527E2
S1131720AA27880F991FAA1FA41710F0A41B83953A
S11317305051B9F7A05DAA3308F0A95DA1930097B1
S113174079F7B111B1931192CB013CC20F931F935E
S1131750CF93DF93CDB7DEB72E970FB6F894DEBFE5
S11317600FBECDBF8C01CA0146E04C831A830983A6
S113177077FF02C060E070E8FB013197FE83ED83E0
S1131780A901BC01CE01019619D04D815E8157FD9E
S11317900AC02F813885421753070CF49A01F801C7
S11317A0E20FF31F10822E960FB6F894DEBF0FBE21
S11317B0CDBFDF91CF911F910F9108952F923F924A
S11317C04F925F926F927F928F929F92AF92BF924D
S11317D0CF92DF92EF92FF920F931F93CF93DF93F9
S11317E0CDB7DEB72C970FB6F894DEBF0FBECDBFD2
S11317F07C016B018A01FC0117821682838181FFBF
S1131800B0C1CE0101964C01F7019381F60193FD1D
S1131810859193FF81916F01882309F49EC18532DC
S113182039F493FD859193FF81916F01853221F401
S1131830B70190E0D7D1E8CF512C312C20E02032F1
S1131840A0F48B3269F030F4803259F0833269F4B9
S113185020612CC08D3239F0803339F4216026C0E8
S11318602260246023C0286021C027FD27C030EDFA
S1131870380F3A3078F426FF06C0FAE05F9E300D48
S11318801124532E13C08AE0389E300D1124332EB8
S113189020620CC08E3221F426FD5FC1206406C094
S11318A08C3611F4206802C0883641F4F60193FDA9
S11318B0859193FF81916F018111C1CF982F9F7DF5
S11318C09554933028F40C5F1F4FFFE3F9830DC048
S11318D0833631F0833771F0833509F057C021C066
S11318E0F801808189830E5F1F4F44244394512C57
S11318F0540114C03801F2E06F0E711CF801A0808D
S1131900B18026FF03C0652D70E002C06FEF7FEF4A
S1131910C5012C874CD12C0183012C852F77222ED5
S113192016C03801F2E06F0E711CF801A080B1807E
S113193026FF03C0652D70E002C06FEF7FEFC50185
S11319402C872AD12C012C852068222E830123FC8C
S113195019C0832D90E048165906A0F4B70180E21F
S113196090E040D13A94F5CFF50127FC859127FE0C
S113197081915F01B70190E035D131103A94F1E0E3
S11319804F1A51084114510479F7DEC0843611F01E
S1131990893631F5F80127FF07C0608171818281A2
S11319A093810C5F1F4F08C060817181072E000C6A
S11319B0880B990B0E5F1F4F2F76722E97FF09C06D
S11319C090958095709561957F4F8F4F9F4F2068BC
S11319D0722E2AE030E0A4013DD1A82EA81843C0FD
S11319E0853729F42F7EB22E2AE030E025C0F22F6D
S11319F0F97FBF2E8F36C1F018F4883579F0ADC069
S1131A00803719F0883721F0A8C02F2F2061B22E1B
S1131A10B4FE0DC08B2D8460B82E09C024FF0AC00B
S1131A209F2F9660B92E06C028E030E005C020E163
S1131A3030E002C020E132E0F801B7FE07C0608167
S1131A407181828193810C5F1F4F06C06081718117
S1131A5080E090E00E5F1F4FA401FCD0A82EA818D0
S1131A60FB2DFF777F2E76FE0BC0372D3E7FA5140E
S1131A7050F474FE0AC072FC08C0372D3E7E05C0C7
S1131A80BA2C372D03C0BA2C01C0B52C34FF0DC0BD
S1131A90FE01EA0DF11D8081803311F4397E09C005
S1131AA032FF06C0B394B39404C0832F867809F040
S1131AB0B39433FD12C030FF06C05A2CB31418F48B
S1131AC0530C5B18B32CB31460F4B70180E290E0BC
S1131AD03C8788D0B3943C85F6CFB31410F43B18FC
S1131AE001C0312C34FF11C0B70180E390E03C8782
S1131AF079D03C8532FF16C031FD03C088E790E001
S1131B0002C088E590E0B7010CC0832F867851F0BD
S1131B1031FF02C08BE201C080E237FD8DE2B701E4
S1131B2090E060D0A51430F4B70180E390E05AD07F
S1131B305A94F8CFAA94F401EA0DF11D8081B701FB
S1131B4090E050D0A110F6CF332009F45DCEB70158
S1131B5080E290E047D03A94F7CFF70186819781ED
S1131B6002C08FEF9FEF2C960FB6F894DEBF0FBE26
S1131B70CDBFDF91CF911F910F91FF90EF90DF9038
S1131B80CF90BF90AF909F908F907F906F905F9019
S1131B904F903F902F900895FC0105906150704044
S1131BA00110D8F7809590958E0F9F1F0895FC0122
S1131BB06150704001900110D8F7809590958E0F78
S1131BC09F1F0895DC01FC01672F71917723E1F7D2
S1131BD0329704C07C916D9370836291AE17BF07F6
S1131BE0C8F308950F931F93CF93DF93FB012381D1
S1131BF021FD03C08FEF9FEF28C022FF16C046814E
S1131C005781248135814217530744F4A081B1815F
S1131C109D012F5F3F4F318320838C932681378131
S1131C202F5F3F4F3783268310C0EB01092F182FF6
S1131C300084F185E02D1995892BE1F68E819F8131
S1131C4001969F838E83812F902FDF91CF911F91D7
S1131C500F910895FA01AA27283051F1203181F11A
S1131C60E8946F936E7F6E5F7F4F8F4F9F4FAF4FA0
S1131C70B1E03ED0B4E03CD0670F781F891F9A1FB3
S1131C80A11D680F791F8A1F911DA11D6A0F711D67
S1131C90811D911DA11D20D009F468943F912AE073
S1131CA0269F11243019305D3193DEF6CF0108955B
S1131CB0462F4770405D4193B3E00FD0C9F7F6CF8C
S1131CC0462F4F70405D4A3318F0495D31FD405254
S1131CD0419302D0A9F7EACFB4E0A69597958795EA
S1131CE077956795BA95C9F70097610571050895C9
S1131CF09B01AC010A2E0694579547953795279575
S1131D00BA95C9F7620F731F841F951FA01D08950C
S1071D10F894FFCF71
S1131D142C000A00426C7565746F6F746820426FFE
S1071D246F740000D4
S9030000FC
