:1000000080C000009FC000009DC000009BC0000099
:1000100099C0000097C0000095C0000093C0000088
:1000200091C000008FC000008DC000008BC0000098
:1000300089C0000087C0000085C0000083C00000A8
:1000400081C000007FC000007DC000007BC00000B8
:1000500079C000000C94AE0A75C0000073C00000A7
:1000600071C000006FC000006DC000006BC00000D8
:1000700069C0000067C0000065C0000063C00000E8
:1000800061C000005FC000005DC000005BC00000F8
:1000900059C0000057C0000055C0000053C0000008
:1000A00051C000004FC000004DC000004BC0000018
:1000B00049C0000047C0000045C0000043C0000028
:1000C00041C000003FC000003DC000000C94850C02
:1000D00039C0000037C0000035C0000033C0000048
:1000E00031C00000520AF30477059C05AD054E0AA5
:1000F0005F06E904CC056C088108CE081A092F09AF
:10010000AE0911241FBECFEFD1E2DEBFCDBF00E0AC
:100110000CBF12E0A0E0B2E0E6EBFFE100E00BBFB5
:1001200002C007900D92AE30B107D9F724E1AEE0DE
:10013000B2E001C01D92AF3FB207E1F70E94AA0AE8
:100140000C94D90F5DCFFF920F931F93CF93DF9342
:100150008C01F62EEA01E881F981D9012D913C91BB
:10016000C9010A966BE070E00E94B60CE817F90727
:1001700079F0E00FF11FF0828881998101966BE0A0
:1001800070E00E94B60C9983888380E090E002C002
:100190008FEF9FEFDF91CF911F910F91FF90089507
:1001A00081E00E94EA0B8093EC142DED34E14BEDDD
:1001B00054E1682F8FED94E1C6DF20EF34E14AEE81
:1001C00054E16091EC1482EF94E1BDDF8AE090E0AD
:1001D0000E949B0AE5CF68E37FEF84EF91E00E94E5
:1001E000650B20EF34E14AEE54E163E682EF94E1DF
:1001F000AADF2FEF89E896E6215080409040E1F792
:1002000000C0000068EC70E084EF91E00E94650B94
:1002100020EF34E14AEE54E167E782EF94E193DFA7
:100220002FEF89E896E6215080409040E1F700C02A
:100230000000D1CFCF93DF93EA0128813981FB0100
:10024000408151814217530771F0FC01E20FF31F07
:10025000E081C90101966BE070E00E94B60C9983C1
:1002600088838E2F01C08FEFDF91CF91089540EFEB
:1002700054E16AEE74E182EF94E1DCDF682F83E001
:100280000E94C20B8AE090E00E949B0AF0CF4DEDE5
:1002900054E16BED74E18FED94E1CCDFC82F682F52
:1002A00080E00E94C20BCC3601F128F4C23679F00E
:1002B000C63631F027C0C23789F0C837E9F022C00E
:1002C00060E070E888EC90E00E94650B1BC060E085
:1002D00070E888E39FEF0E94650B14C06FEF7FEF1B
:1002E00088EC90E00E94650B0DC061E070E088E34F
:1002F0009FEF0E94650B06C060E070E080E090E038
:100300000E94650B84E190E00E949B0AC0CF8FEFB2
:1003100080930A0140E855E260E070E080E00E94CE
:100320007C0B80E092E09F938F931F920E94140CAD
:1003300040E855E260E070E081E00E947C0B40E81C
:1003400055E260E070E083E00E947C0B85E092E083
:100350009F938F9383E08F930E94140C0E94120B43
:100360001092DE141092DD141092DC141092DB1443
:100370001092F1141092F0141092EB141092EA14EF
:100380000F900F900F900F900F900F9083E00E94AE
:10039000EA0B8736D9F767E680E00E94C20B7894B3
:1003A00040E050E061E080ED90E00E94850A40E08E
:1003B00050E061E087E391E00E94850A40E050E070
:1003C00062E087E491E00E94850A40E050E063E04B
:1003D0008BEE90E00C94850A0895109AFF93FFB776
:1003E000F894FF93FCB7FF93EF93DF93CF93BF9302
:1003F000AF939F938F937F936F935F934F933F93AD
:100400002F931F930F93FF92EF92DF92CF92BF92A1
:10041000AF929F928F927F926F925F924F923F9294
:100420002F921F920F928DB79EB79093FE148093D8
:10043000FD14E091B814F091B914EF5FFE4F808184
:1004400091819EBF8DBF0F901F902F903F904F9036
:100450005F906F907F908F909F90AF90BF90CF9064
:10046000DF90EF90FF900F911F912F913F914F914F
:100470005F916F917F918F919F91AF91BF91CF913C
:10048000DF91EF91FF91FCBFFF91FFBFFF911098AB
:100490000895109AFF93FFB7F894FF93FCB7FF936A
:1004A000EF93DF93CF93BF93AF939F938F937F93FC
:1004B0006F935F934F933F932F931F930F93FF92ED
:1004C000EF92DF92CF92BF92AF929F928F927F92E4
:1004D0006F925F924F923F922F921F920F92E091F4
:1004E000B814F091B9148DB79EB7EF5FFE4F9183AA
:1004F00080838091FD149091FE149EBF8DBF0F905C
:100500001F902F903F904F905F906F907F908F90B3
:100510009F90AF90BF90CF90DF90EF90FF900F91A2
:100520001F912F913F914F915F916F917F918F918B
:100530009F91AF91BF91CF91DF91EF91FF91FCBF60
:10054000FF91FFBFFF9110980895FC01DB01A95FA7
:10055000BE4F1D921C9280819181892B29F4718359
:100560006083738362830895A281B381A95FBE4FC4
:100570006D937C93738362830895FC0180819181E4
:10058000009751F0DC01A95FBE4F2D913C9111976E
:10059000318320831D921C9208958091B102909125
:1005A000B20201969093B2028093B1028091470209
:1005B00090914802892B09F466C08091B702893076
:1005C00029F087E492E0D9DFBC0102C069EA73E157
:1005D0009B0129523F4FFB01E852FF4F90E091935E
:1005E0009F5F9F31E1F7FB01E752FF4F108280E8E8
:1005F0007F9680838FE13196808331961082E3EB82
:10060000F2E080819181DB01A550BF4F9C938081F6
:10061000918111968C9311961C9286E493E0119629
:100620009C9311968C93129611963C932E9382E094
:1006300012968C938281938111968D939C938481E1
:10064000FB01EA5FFE4F8083369680832091B102E2
:100650003091B2023C97208393E1693A790719F40B
:100660001092AF140BC090E09C01220F331F220F99
:10067000331F820F931F8A5E9D4F67DF8091B10207
:100680009091B202089580E090E00895CF93CFB7A3
:10069000F89483E08093B802FCDECFBFCF91089539
:1006A000119A8AE08A95F1F700C01198F9CFF89471
:1006B00086E084B980910E0230910E023F5F76E0B1
:1006C00064E642E02AE054E174B9862F9FE7A8E38C
:1006D000E1E09150A040E040E1F700C0000081500F
:1006E000A9F714B888E2FFE798E3A1E0F150904041
:1006F000A040E1F700C000008150A9F7332359F171
:1007000090E044B9822FEFE7F8E3A1E0E150F04038
:10071000A040E1F700C000008150A9F714B8822F73
:10072000EFE7F8E3A1E0E150F040A040E1F700C0BE
:1007300000008150A9F79F5F3913E3CF0CC0EFE7AA
:10074000F8E391E0E150F0409040E1F700C0000094
:100750008150A9F7B9CF852FF2CFCF93DF931F92A6
:100760001F92CDB7DEB7E1E8F0E08081897F80831A
:10077000808181608083ECEBF3E088EC93E029EAF0
:1007800033E11082DC0119971C9216961C921C977B
:100790001C921B961C9295838483E15FFE4F815FC0
:1007A0009E4F8217930769F71092A2131092A1131C
:1007B0000BE412E0A3E5B2E023E932E0F801AD0179
:1007C000118210821382128215821482CA0102974A
:1007D000DC011C920196DC011C92DA011C92399614
:1007E000475F5F4FE217F30759F7E5E1F2E080E07A
:1007F000808312821182148213828F5F35968A3031
:10080000B9F7E8E9F2E088EA92E011921192E8176C
:10081000F907D9F7E7E4F2E00F2EF9EBEF2EF2E05B
:10082000FF2EF02DF182E0828AE992E193838283A8
:100830000F2EF3EBCF2EF2E0DF2EF02D80E593E0CC
:10084000F6019183808389E08483A7DE87E891E0C5
:10085000D60111969C938E9314961C929EDEF09274
:10086000B914E092B81481E08093BC0386E192E071
:1008700084DE82E084BD9DE997BD80936E0085E0B3
:1008800085BD1092100210920F020F2EF5E18F2EEF
:10089000F2E09F2EF02D0F2EF9EAEF2EF3E1FF2E5E
:1008A000F02D612C712C0F2EF9EA4F2EF2E05F2E05
:1008B000F02D22242394312C09831A838091B814BB
:1008C0009091B914FC01ED5FFE4F2081213021F49D
:1008D000895A934109F06EC0F40181819281892B7C
:1008E000C1F410E01F5F812F90E0FC01EE0FFF1FAD
:1008F000EE0FFF1FE80FF91FEB5EFD4F21813281E4
:10090000232B81F31A3041F4F092B914E092B81419
:1009100049C0862D972D10E09C01220F331F220F16
:10092000331F820F931F8A5E9D4F27DE9093B91469
:100930008093B814FC01E55FFE4F2081213091F5D2
:10094000212F30E0F901EE0FFF1FEE0FFF1F2E0FDA
:100950003F1FF901EB5EFD4F21813281232B09F40A
:100960001F5F193029F4F092B914E092B8141AC03C
:10097000BC0183E492E0E9DD812F90E09C01220F2D
:10098000331F220F331F820F931F8A5E9D4FF5DDA9
:100990009093B9148093B814FC01E55FFE4F208159
:1009A000213071F2E091B814F091B914ED5FFE4F6F
:1009B00081E0808312DD8091B80290E08F30910554
:1009C00008F06CC5FC018827EE58FF4F8F4F0C9440
:1009D000EB0CD40111968D919C911297892B09F4FF
:1009E00057C260E06AC280E885B980910F02909199
:1009F000100201969093100280930F02E1E1F2E061
:100A000080819181009709F470C0FC01E35FFE4F83
:100A100080819181019791838083D12C6894CC242B
:100A2000C1F8BB24B394A12C3CC00115110559F0A9
:100A3000F801E75FFE4F80819181A1E1B2E08D93E3
:100A40009C9311821082F801ED5FFE4FC0823396B5
:100A5000808190E09C01220F331F220F331F820FF1
:100A6000931FB8018A5E9D4F70DD8091B8149091FC
:100A7000B914B3E1893A9B0771F0D1100CC0FC01A5
:100A8000EA5FFE4FD801AA5FBE4FDB2C90818C91AC
:100A9000891708F0DA2CE1E1F2E080819181892B5D
:100AA00061F0A1E1B2E00D911C91F801E35FFE4F0E
:100AB00080819181892B09F4B8CFDD20B1F060915C
:100AC000B8147091B914B3E1693A7B0771F0FB0176
:100AD000ED5FFE4F82E0808333968081E5E08E9F5C
:100AE000C00111248A5E9D4F30DD15B8DBC455DD91
:100AF0009093AE028093AD028091AD029091AE02D0
:100B0000181619060CF0CEC49091B7026091B81473
:100B10007091B914FB01EA5FFE4F8081981708F0CD
:100B2000C1C4339792E09083F5E08F9FC0011124F8
:100B30008A5E9D4F0ADDB6C46091B8147091B914F5
:100B400023E1693A720709F4ADC4FB01ED5FFE4F82
:100B5000108287E492E0F9DCA5C40091B8141091EA
:100B6000B91443E1093A140709F49CC4F801EA5F97
:100B7000FE4F808190E09C01220F331F220F331F14
:100B8000820F931FB8018A5E9D4FDFDCF801ED5F95
:100B9000FE4F82E0808386C4A091B814B091B9144E
:100BA00083E1A93AB80709F47DC484E0FD01ED5F53
:100BB000FE4F8083E1E1F2E0408151814115510512
:100BC00071F0FA01E35FFE4F608171818091AB02A9
:100BD0009091AC026817790708F44DC066C4E1E152
:100BE000F2E0B183A083FD01E75FFE4F1182108226
:100BF0008091AB029091AC02A35FBE4F8D939C930A
:100C000051C4F901E35FFE4F80819181860F971FE8
:100C1000E091AB02F091AC028E179F0750F1FD01FD
:100C2000E75FFE4F318320838091AB029091AC024D
:100C3000861B970B349691838083F901E35FFE4F07
:100C4000008111816801C81AD90AD182C082411578
:100C5000510549F4E1E1F2E0B183A08321153105AA
:100C600009F020C412C0FA01E75FFE4FB183A083F0
:100C700019C4BC01A901FA01E75FFE4F208131814F
:100C80002115310509F0BDCF01C0A901FA01E75FC7
:100C9000FE4FB183A083FD01E75FFE4F11821082FA
:100CA000B0931402A09313028091AB029091AC0216
:100CB000A35FBE4F861B970B8D939C93F3C36091EC
:100CC000B8147091B914F3E1693A7F0709F4EAC3E3
:100CD0002091AF023091B002FB01F395808190E04A
:100CE0008217930751F0D40111962D913C911297E0
:100CF0002115310571F010E022C0FB01E55FFE4FC8
:100D000081E08083389782E0808386E192E01DDC79
:100D1000C9C310E01F5F812F90E0FC01EE0FFF1FA1
:100D2000EE0FFF1F8E0F9F1FFC01EB5EFD4F218119
:100D300032812115310571F31A3008F0CFC340918B
:100D4000AF025091B002F901F395808190E08417D1
:100D5000950771F0D22E032F5F0120C04091AF02A2
:100D60005091B002F501808190E084179507B1F4AD
:100D7000F901E55FFE4F81E0808394C34091AF02AB
:100D80005091B002DF01B3958C9190E084179507E4
:100D900039F4E55FFE4F81E0808384C3ED2DF02FB1
:100DA000E95FFE4F0190F081E02D309739F71F5F2A
:100DB0001A30A0F293C380914D0290914E0240915F
:100DC000AF025091B002FC01F395208130E024176E
:100DD0003507A1F0A981BA8160E025C01B968D91ED
:100DE0009C911C974091AF025091B0021996FC0162
:100DF000F395208130E024173507A9F4FC01E55F65
:100E0000FE4F21E020834EC34091AF025091B002CB
:100E1000FC01F395208130E02417350721F43B963F
:100E200081E080833FC3FC01E95FFE4F80819181B7
:100E3000009751F76F5F671788F254C3A8E9B2E0D3
:100E40004D915C916091AF027091B002FA01F395FF
:100E5000808190E086179707A1F40DC041915191D0
:100E60006091AF027091B002DA01B3958C9190E07D
:100E70008617970749F4FA01E55FFE4F81E080830A
:100E800011C3EAE9F2E020E02F5F2313E7CF0AC3A2
:100E900060E06F5F862F90E0FC01EE0FFF1FEE0F0A
:100EA000FF1F8E0F9F1FFC01EB5EFD4F8181928122
:100EB000892B79F3693008F063C0862F90E0FC013C
:100EC000EE0FFF1FEE0FFF1F8E0F9F1FFC01EB5E4B
:100ED000FD4F818192814091AF025091B002FC019F
:100EE000F395208130E024173507E1F010E071E040
:100EF00039C0862F90E0FC01EE0FFF1FEE0FFF1FA1
:100F00008E0F9F1FFC01EB5EFD4F8181928140910E
:100F1000AF025091B002FC01F395208130E024171C
:100F2000350701F5FC01E55FFE4F1082DC01AA5F89
:100F3000BE4F319680818C93B5C24091AF025091E3
:100F4000B002FC01F395208130E02417350751F4FD
:100F50003B9610823597DC01A45FBE4F8C91808355
:100F6000172F07C0FC01E95FFE4F80819181009738
:100F700021F76F5F693008F4BCCF113011F492C2D1
:100F800010E083E492E0F9DA4091AF025091B002B0
:100F9000FC01F395208130E02417350709F0ACC23D
:100FA0000BC04091AF025091B002FC01F39520813B
:100FB00030E02417350791F4FC01E45FFE4F2081F7
:100FC0003697208335961082B5E02B9F900111242F
:100FD000BC01C9018A5E9D4FB8DA64C2BC0183E4DA
:100FE00092E0B3DA83E492E0C8DA0150D1F670916E
:100FF0009302772309F47BC280914D0290914E02B7
:101000004091AF025091B002FC01F395208130E095
:1010100024173507A1F0A981BA8160E023C01B968F
:101020008D919C911C974091AF025091B0021996FE
:10103000FC01F395208130E02417350799F4FC0179
:10104000E55FFE4F10822EC24091AF025091B00278
:10105000FC01F395208130E02417350719F43B9605
:10106000108220C2FC01E95FFE4F808191810097D0
:1010700059F7113009F416C26F5F671780F237C253
:10108000E8E9F2E0408151816091AF027091B002D5
:10109000FA01F395808190E08617970799F40DC0C7
:1010A000419151916091AF027091B002DA01B39514
:1010B0008C9190E08617970741F4FA01E55FFE4FA7
:1010C0001082F0C1EAE9F2E020E02F5F2313E8CFBD
:1010D00082E080930E02EBDA6092A9027092AA027B
:1010E0008091A802883008F0DDC1282F30E02F5F02
:1010F0003F4F3093AA022093A9028F5F8093A802EA
:10110000D1C14091B8145091B914F3E1493A5F0745
:1011100009F4C8C1D2018C9181509091A80289171D
:1011200020F084E080930E02C2DA282F30E0F9012B
:10113000EE0FFF1FE856FD4F60817181672B31F084
:101140008AE080930E0280E885B9B1DAB10102C06D
:10115000660F771F8A95E2F7809196029091970229
:1011600086239723892B69F08091960290919702AC
:101170006095709568237923709397026093960227
:1011800091C1FA01ED5FFE4F83E08083220F331F90
:10119000F901E856FD4F5183408384C1D201EC919F
:1011A000E1508091A802E81720F083E080930E02BE
:1011B0007EDAF0E0EE0FFF1FE856FD4F008111814F
:1011C0000115110509F46EC182E0F801ED5FFE4FD3
:1011D00080833396808190E09C01220F331F220F81
:1011E000331F820F931FB8018A5E9D4FAED9609165
:1011F000B8147091B914B3E1693A7B0709F452C18C
:10120000F801EA5FFE4FDB01AA5FBE4F9C9180812F
:10121000891708F047C1FB01ED5FFE4F82E0808334
:10122000FD018081E5E08E9FC00111248A5E9D4F03
:101230008CD938C160929402709295028091930289
:10124000883008F02FC1282F30E02F5F3F4F3093B8
:101250009502209394028F5F8093930223C1609143
:10126000B8147091B914F3E1693A7F0709F41AC10F
:10127000A4E9B2E02C91215080919302281720F02C
:1012800087E080930E0213DA30E0F901EE0FFF1FC2
:10129000EE0FFF1FEE0FFF1FE20FF31FE55BFD4F89
:1012A00080819181009799F489E0829FF001839F6A
:1012B000F00D1124E55BFD4F7183608381E086832F
:1012C000DB01AA5FBE4F8C9187838087EBC06817D4
:1012D000790761F489E0829FF001839FF00D11246A
:1012E000E55BFD4F86818F5F8683DCC0FB01EA5F93
:1012F000FE4F908189E0829FF001839FF00D1124C1
:10130000E55BFD4F80859817D0F489E0829FA001AE
:10131000839F500D1124FA01E55BFD4F90870190EA
:10132000F081E02DEA5FFE4F9083FB01ED5FFE4F01
:1013300083E08083CA01835B9D4F07D9B3C0FB0163
:10134000ED5FFE4F83E0808349E0429FC001439FF1
:10135000900D1124835B9D4FF8D8A4C0E4E9F2E01E
:101360000081015080919302081720F088E080935B
:101370000E029DD910E0F801EE0FFF1FEE0FFF1FC8
:10138000EE0FFF1FE00FF11FE55BFD4FC080D18026
:101390008091B8149091B914C816D90621F089E04B
:1013A00080930E0284D9F801EE0FFF1FEE0FFF1F8E
:1013B000EE0FFF1FE00FF11FE55BFD4F86818230CE
:1013C00058F099E0909FF001919FF00D1124E55B9A
:1013D000FD4F8150868366C089E0809FF001819F28
:1013E000F00D1124E55BFD4F8781D601AA5FBE4F4A
:1013F0008C9316968C9382819381892B71F489E06A
:10140000809FF001819FF00D1124E55BFD4F168256
:10141000178210861182108245C029E0209FC001EA
:10142000219F900D1124835B9D4FA7D85C01F6018D
:10143000EA5FFE4F8081F501EA5FFE4F90819817C9
:1014400068F4F601ED5FFE4F92E09083F5E08F9F28
:10145000C0011124B6018A5E9D4F77D889E0809F34
:10146000F001819FF00D1124E55BFD4FB182A08258
:1014700081E08683D501AA5FBE4F8C9187838087E8
:10148000F501ED5FFE4F92E0908325E0829FC00161
:101490001124B5018A5E9D4F58D804C086E0809320
:1014A0000E0205D91092B80209CAFD01E75FFE4F8E
:1014B000518340832091AB023091AC02349631834A
:1014C0002083FA01E35FFE4F80819181821B930BA1
:1014D000918380839A01662D772DBCCB7091930206
:1014E000711169CC3091A8023111A8CCDBCF3091B9
:1014F000A8023111C5CDECCDBC0183E492E025D822
:1015000083E492E03AD80FE04CCDCF93CFB7F89474
:10151000E3EBF2E09183808353834283648382E030
:101520008093B8020E9449028091AD029091AE0270
:10153000CFBFCF910895CF93CFB7F89428E02093F1
:10154000B8029093AC028093AB020E944902CFBFD5
:10155000CF91089580E884B915B8FFD8FF93FFB7FD
:10156000F894F068FF93FCB7FF93EF93DF93CF936A
:10157000BF93AF939F938F937F936F935F934F939B
:101580003F932F931F930F93FF92EF92DF92CF928F
:10159000BF92AF929F928F927F926F925F924F9283
:1015A0003F922F921F920F92E091B814F091B914CC
:1015B0008DB79EB7EF5FFE4F918380838091FD14BE
:1015C0009091FE149EBF8DBF81E08093B802809100
:1015D000FD149091FE149EBF8DBF0F901F902F9011
:1015E0003F904F905F906F907F908F909F90AF90C3
:1015F000BF90CF90DF90EF90FF900F911F912F91B0
:101600003F914F915F916F917F918F919F91AF919A
:10161000BF91CF91DF91EF91FF91FCBFFF91FFBF91
:10162000FF9108953D9A45982FEF39E688E12150C2
:1016300030408040E1F700C00000459A9FEF27EA64
:1016400031E6915020403040E1F700C0000083E0D7
:1016500045989FEF20E732E0915020403040E1F77D
:1016600000C00000459A9FEF20E732E091502040F3
:101670003040E1F700C00000815051F71BD180E8F5
:101680003CD18FEF99EF20E0815090402040E1F76E
:1016900000C0000081E831D189E02FD13FEF81EE19
:1016A00094E0315080409040E1F700C0000081E0BC
:1016B00001D182E822D12FEF39EF80E02150304074
:1016C0008040E1F700C0000008950F931F93CF936F
:1016D000DF93182F092FC62FD72F89E80ED1802F1F
:1016E0000CD1812F0AD18D2F08D18C2F06D1DF91FB
:1016F000CF911F910F9108959A01AB018130A9F00C
:1017000028F0823009F1833071F1089560E472E4C9
:101710008FE090E03ED1215031093093C5002093F5
:10172000C40088E18093C100089560E472E48FE012
:1017300090E02FD1215031093093CD002093CC007F
:1017400088E18093C900089560E472E48FE090E03E
:1017500020D1215031093093D5002093D40088E165
:101760008093D100089560E472E48FE090E011D19D
:1017700021503109309335012093340188E1809361
:1017800031010895813071F028F0823099F0833072
:10179000C9F00895E0ECF0E0808185FFFDCF609313
:1017A000C6000895E8ECF0E0808185FFFDCF6093EE
:1017B000CE000895E0EDF0E0808185FFFDCF6093DD
:1017C000D6000895E0E3F1E0808185FFFDCF6093CE
:1017D00036010895813071F028F0823099F083301D
:1017E000C9F020C0E0ECF0E080818823ECF7809124
:1017F000C6000895E8ECF0E080818823ECF7809142
:10180000CE000895E0EDF0E080818823ECF7809130
:10181000D6000895E0E3F1E080818823ECF7809121
:101820003601089580E00895DF92EF92FF920F93C2
:101830001F93CF93DF93CDB7DEB7C054D1090FB656
:10184000F894DEBF0FBECDBF2C960FAD2C97DFB640
:10185000F8949E01225B3F4F2E964EAD5FAD2E97C2
:1018600060E470E0CE010196D2D07C01892B91F02A
:1018700090E011E0190FE1E0F0E0EC0FFD1FE90F3F
:10188000F11D6081802F7EDF912F212F30E02E15FA
:101890003F0578F3DFBEC05CDF4F0FB6F894DEBFC4
:1018A0000FBECDBFDF91CF911F910F91FF90EF90B1
:1018B000DF90089592E09093D00098E99093D10042
:1018C00096E09093D2001092D500813041F018F04C
:1018D000823049F00CC087E68093D4000BC083E3CC
:1018E0008093D40007C082E28093D40003C087E6CF
:1018F0008093C4001092BA140895E0EDF0E0908156
:1019000095FFFDCF8093D60008951F920F920FB6DA
:101910000F9211240BB60F928F939F93EF93FF9327
:10192000E0EDF0E080818823ECF7E091BA14F0E07C
:101930008091D600E554FB4E80838091BA1490E0EC
:1019400001968F719078992324F40197806E9F6F90
:1019500001968093BA14FF91EF919F918F910F9010
:101960000BBE0F900FBE0F901F90189597FB072E80
:1019700016F4009406D077FD08D035D007FC05D0CA
:101980003EF4909581959F4F0895709561957F4F96
:101990000895A1E21A2EAA1BBB1BFD010DC0AA1FB0
:1019A000BB1FEE1FFF1FA217B307E407F50720F0C8
:1019B000A21BB30BE40BF50B661F771F881F991F43
:1019C0001A9469F760957095809590959B01AC018C
:1019D000BD01CF010895EE0FFF1F881F8BBF079039
:1019E000F691E02D1994AA1BBB1B51E107C0AA1F59
:1019F000BB1FA617B70710F0A61BB70B881F991FB0
:101A00005A95A9F780959095BC01CD0108950F9343
:101A10001F93CF93DF93CDB7DEB72E970FB6F89411
:101A2000DEBF0FBECDBF8C01CA0146E04C831A83D6
:101A3000098377FF02C060E070E8FB013197FE8305
:101A4000ED83A901BC01CE01019619D04D815E81C3
:101A500057FD0AC02F813885421753070CF49A01AD
:101A6000F801E20FF31F10822E960FB6F894DEBF36
:101A70000FBECDBFDF91CF911F910F9108952F928F
:101A80003F924F925F926F927F928F929F92AF920E
:101A9000BF92CF92DF92EF92FF920F931F93CF935B
:101AA000DF93CDB7DEB72C970FB6F894DEBF0FBE2D
:101AB000CDBF7C016B018A01FC01178216828381F4
:101AC00081FFB0C1CE0101964C01F7019381F6016F
:101AD00093FD859193FF81916F01882309F49EC145
:101AE000853239F493FD859193FF81916F018532A1
:101AF00021F4B70190E0C7D1E8CF512C312C20E080
:101B00002032A0F48B3269F030F4803259F0833205
:101B100069F420612CC08D3239F0803339F42160B2
:101B200026C02260246023C0286021C027FD27C072
:101B300030ED380F3A3078F426FF06C0FAE05F9EA9
:101B4000300D1124532E13C08AE0389E300D11241D
:101B5000332E20620CC08E3221F426FD5FC120643A
:101B600006C08C3611F4206802C0883641F4F601B4
:101B700093FD859193FF81916F018111C1CF982FC2
:101B80009F7D9554933028F40C5F1F4FFFE3F9833A
:101B90000DC0833631F0833771F0833509F057C0BB
:101BA00021C0F801808189830E5F1F4F4424439434
:101BB000512C540114C03801F2E06F0E711CF80171
:101BC000A080B18026FF03C0652D70E002C06FEFDA
:101BD0007FEFC5012C874CD12C0183012C852F77F9
:101BE000222E16C03801F2E06F0E711CF801A080A1
:101BF000B18026FF03C0652D70E002C06FEF7FEF5C
:101C0000C5012C872AD12C012C852068222E830126
:101C100023FC19C0832D90E048165906A0F4B701A3
:101C200080E290E030D13A94F5CFF50127FC859120
:101C300027FE81915F01B70190E025D131103A94E0
:101C4000F1E04F1A51084114510479F7DEC084368F
:101C500011F0893631F5F80127FF07C060817181E5
:101C6000828193810C5F1F4F08C060817181072EB4
:101C7000000C880B990B0E5F1F4F2F76722E97FF6B
:101C800009C090958095709561957F4F8F4F9F4FBC
:101C90002068722E2AE030E0A4012DD1A82EA818C9
:101CA00043C0853729F42F7EB22E2AE030E025C0CC
:101CB000F22FF97FBF2E8F36C1F018F4883579F0F6
:101CC000ADC0803719F0883721F0A8C02F2F2061D0
:101CD000B22EB4FE0DC08B2D8460B82E09C024FF37
:101CE0000AC09F2F9660B92E06C028E030E005C0DC
:101CF00020E130E002C020E132E0F801B7FE07C089
:101D000060817181828193810C5F1F4F06C0608169
:101D1000718180E090E00E5F1F4FA401ECD0A82EEF
:101D2000A818FB2DFF777F2E76FE0BC0372D3E7F48
:101D3000A51450F474FE0AC072FC08C0372D3E7E14
:101D400005C0BA2C372D03C0BA2C01C0B52C34FF06
:101D50000DC0FE01EA0DF11D8081803311F4397E42
:101D600009C032FF06C0B394B39404C0832F8678B1
:101D700009F0B39433FD12C030FF06C05A2CB314DF
:101D800018F4530C5B18B32CB31460F4B70180E261
:101D900090E03C8778D0B3943C85F6CFB31410F430
:101DA0003B1801C0312C34FF11C0B70180E390E033
:101DB0003C8769D03C8532FF16C031FD03C088E7FF
:101DC00090E002C088E590E0B7010CC0832F8678D0
:101DD00051F031FF02C08BE201C080E237FD8DE29D
:101DE000B70190E050D0A51430F4B70180E390E043
:101DF0004AD05A94F8CFAA94F401EA0DF11D8081DB
:101E0000B70190E040D0A110F6CF332009F45DCEA9
:101E1000B70180E290E037D03A94F7CFF70186819E
:101E2000978102C08FEF9FEF2C960FB6F894DEBF1C
:101E30000FBECDBFDF91CF911F910F91FF90EF901B
:101E4000DF90CF90BF90AF909F908F907F906F90DA
:101E50005F904F903F902F900895FC010590615046
:101E600070400110D8F7809590958E0F9F1F0895B0
:101E7000FC016150704001900110D8F78095909559
:101E80008E0F9F1F08950F931F93CF93DF93FB0136
:101E9000238121FD03C08FEF9FEF28C022FF16C0D2
:101EA00046815781248135814217530744F4A0812C
:101EB000B1819D012F5F3F4F318320838C93268119
:101EC00037812F5F3F4F3783268310C0EB01092FE7
:101ED000182F0084F185E02D1995892BE1F68E816C
:101EE0009F8101969F838E83812F902FDF91CF91C9
:101EF0001F910F910895FA01AA27283051F120313E
:101F000081F1E8946F936E7F6E5F7F4F8F4F9F4F8D
:101F1000AF4FB1E03ED0B4E03CD0670F781F891FCF
:101F20009A1FA11D680F791F8A1F911DA11D6A0F9D
:101F3000711D811D911DA11D20D009F468943F9150
:101F40002AE0269F11243019305D3193DEF6CF014F
:101F50000895462F4770405D4193B3E00FD0C9F715
:101F6000F6CF462F4F70405D4A3318F0495D31FD82
:101F70004052419302D0A9F7EACFB4E0A6959795D5
:101F8000879577956795BA95C9F7009761057105AB
:101F900008959B01AC010A2E0694579547953795F5
:101FA0002795BA95C9F7620F731F841F951FA01D4F
:061FB0000895F894FFCF34
:0E1FB600426F6F7400426F6F742043683300F7
:00000001FF
